S00C0000756172742E737265635C
S11300000C9434000C9451000C9451000C94510045
S11300100C9451000C9451000C9451000C94510018
S11300200C9451000C9451000C9451000C94510008
S11300300C9451000C943E010C9451000C9451000A
S11300400C9451000C9451000C9469020C94970286
S11300500C9451000C9453010C9451000C945100D5
S11300600C9451000C94510011241FBECFEFD8E022
S1130070DEBFCDBF11E0A0E0B1E0E6EAF6E002C0E9
S113008005900D92AE37B107D9F721E0AEE7B1E0A4
S113009001C01D92A33CB207E1F70E94EA000C9450
S11300A051030C940000299A000029980895CF93D5
S11300B0C82F662311F0289A01C02898549A559A9B
S11300C0569A579A5F985E985D985C98CC230CF486
S11300D05F9AC6FD5E9AC5FD5D9AC4FD5C9A0E9456
S11300E053005F985E985D985C98C3FD5F9AC2FD6B
S11300F05E9AC1FD5D9AC0FD5C9A0E9453005C9AB1
S11301005D9A5E9A5F9A8AEF8A95F1F7CF91089586
S113011060E00E9457000895611104C080580E9455
S11301208800089580540E948800089581E00E9408
S11301308800089561E00E9457000895CF93DF93EB
S1130140EC012196FC018081882329F00E949A0009
S113015089918111FBCFDF91CF910895CF93C82F5F
S1130160209A559A219A549A559A569A579A8FE9F1
S11301709FE00197F1F700C000005D9A5C9A0E942D
S1130180530081EE94E00197F1F700C000000E9453
S1130190530095E19A95F1F700000E94530085E120
S11301A08A95F1F700005C980E94530095E19A95B6
S11301B0F1F7000088E20E94880088E00E9488002D
S11301C00E94960086E00E9488008C2F0E9488007E
S11301D0CF9108958CE00E94AE0060E081E00E941F
S11301E08C0080E091E00E949E0061E083E00E9428
S11301F08C0087E091E00E949E0060E088E00E940D
S11302008C008CE091E00E949E0060E08DE00E94F2
S11302108C008EE091E00E949E0061E088E00E94E4
S11302208C0080E191E00E949E00ECE7F0E0808188
S11302308F7780838081806480838081807F8083C6
S1130240EAE7F0E080818068808380818860808331
S1130250808187608083EFE6F0E080818160808325
S1130260E1E8F0E080818B7F8083808183608083FC
S113027087E690E00E94C1027894FFCF1F920F920C
S11302800FB60F9211248F93EF93FF93EAE7F0E0F8
S1130290808180648083FF91EF918F910F900FBED6
S11302A00F901F9018951F920F920FB60F92112462
S11302B00F931F932F933F934F935F936F937F936A
S11302C08F939F93AF93BF93EF93FF93CF93DF935A
S11302D000D000D0CDB7DEB780E390E39A83898362
S11302E09C838B8300917800109179004AE0BE01D1
S11302F06F5F7F4FC8010E941C030E94960060E05C
S113030081E00E948C0080E091E00E949E0061E008
S113031083E00E948C0087E091E00E949E000E3FE3
S113032083E01807E9F460E088E00E948C00CE01C5
S113033001960E949E0060E08DE00E948C0082E1A4
S113034091E00E949E0061E088E00E948C0086E1BA
S113035091E00E949E008EE191E00E940D039EC0F8
S11303600A3882E01807E9F460E088E00E948C0013
S1130370CE0101960E949E0060E08DE00E948C00F8
S113038083E291E00E949E0061E088E00E948C007C
S113039087E291E00E949E0080E391E00E940D03B9
S11303A07DC0023981E01807E9F460E088E00E942A
S11303B08C00CE0101960E949E0060E08DE00E94B8
S11303C08C0087E391E00E949E0061E088E00E9437
S11303D08C008BE391E00E949E0085E491E00E94F2
S11303E00D035CC0053F1105E9F460E088E00E945C
S11303F08C00CE0101960E949E0060E08DE00E9478
S11304008C008AE491E00E949E0061E088E00E94F2
S11304108C008DE491E00E949E0087E591E00E94AB
S11304200D033CC005361105E9F460E088E00E9444
S11304308C00CE0101960E949E0060E08DE00E9437
S11304408C008CE591E00E949E0061E088E00E94AF
S11304508C008FE591E00E949E0087E691E00E9467
S11304600D031CC060E088E00E948C00CE01019660
S11304700E949E0060E08DE00E948C008AE691E07C
S11304800E949E0061E088E00E948C008DE691E06D
S11304900E949E0088E791E00E940D030E94DA0208
S11304A00F900F900F900F90DF91CF91FF91EF91EC
S11304B0BF91AF919F918F917F916F915F914F9178
S11304C03F912F911F910F910F900FBE0F901F908E
S11304D018951F920F920FB60F9211242F938F939A
S11304E09F93EF93FF938091C0002091C6008C717D
S11304F0E0918001EF5FEF7190917F01E91739F08E
S1130500E0938001F0E0ED57FE4F208301C082E0CC
S113051090917E01892B80937E01FF91EF919F91B1
S11305208F912F910F900FBE0F901F9018951F92CF
S11305300F920FB60F9211248F939F93EF93FF9313
S11305409091820180918101981769F0E091810175
S1130550EF5FEF71E0938101F0E0ED55FE4F808194
S11305608093C60005C0E1ECF0E080818F7D80833C
S1130570FF91EF919F918F910F900FBE0F901F905D
S113058018951092820110928101109280011092AC
S11305907F0199231CF422E02093C000907890936B
S11305A0C5008093C40088E98093C10086E08093ED
S11305B0C20008959091800180917F019817A9F05D
S11305C090917F019F5F9F71E92FF0E0ED57FE4FFF
S11305D0208180917E0190937F0110927E0190E0B2
S11305E0982F8827820F911D089580E091E0089547
S11305F0209182012F5F2F71909181012917E1F3DE
S1130600E22FF0E0ED55FE4F808320938201E1EC70
S1130610F0E08081806280830895CF93DF93EC01C2
S11306208881882331F021960E94F80289918111F2
S1130630FBCFDF91CF910895BB274A3031F4992342
S113064022F4BDE2909581959F4F0C942803BB271B
S1130650FB015527AA27880F991FAA1FA41710F07A
S1130660A41B83955051B9F7A05DAA3308F0A95D86
S1130670A193009779F7B111B1931192CB010C9426
S11306804103DC01FC01672F71917723E1F7329775
S113069004C07C916D9370836291AE17BF07C8F359
S10906A00895F894FFCF59
S11306A676616C75653A006B65793A0061006200A3
S11306B66300334645006E6F6E65202020006E6F22
S11306C66E65003238410053656C65637420200002
S11306D653656C65637400313932004C6566742069
S11306E620202020004C65667400463500446F7750
S11306F66E202020202000446F776E00363500558A
S11307067020202020200055700030300052696788
S1110716687420202020200052696768740057
S9030000FC
