S01100004D6F727365436F64652E7372656392
S11300000C9434000C943E000C943E000C943E007E
S11300100C943E000C943E000C943E000C943E0064
S11300200C943E000C943E000C943E000C943E0054
S11300300C943E000C943E000C943E000C943E0044
S11300400C943E000C943E000C943E000C943E0034
S11300500C943E000C943E000C943E000C943E0024
S11300600C943E000C943E0011241FBECFEFD8E048
S1130070DEBFCDBF0E946A000C9481000C94000086
S11300802D9A2FEF83ED90E3215080409040E1F7CB
S113009000C000002D982FEF89E698E121508040A0
S11300A09040E1F700C0000008952D9A2FEF89E6F3
S11300B098E1215080409040E1F700C000002D9865
S11300C02FEF89E698E1215080409040E1F700C08D
S11300D000000895259A2D980E9440000E94550022
S11300E00E9455000E9440000E9455000E94550045
S11300F00E9455000E9440000E9440000E9440005F
S1090100EBCFF894FFCFE1
S9030000FC
