S01400004B6E696768742052696465722E7372656395
S11300000C9434000C9449000C9449000C9449005D
S11300100C9449000C9449000C9449000C94490038
S11300200C9449000C9449000C9449000C94490028
S11300300C9449000C9449000C9449000C94490018
S11300400C9449000C9449000C9449000C94490008
S11300500C9449000C9449000C9449000C944900F8
S11300600C9449000C94490011241FBECFEFD8E032
S1130070DEBFCDBF11E0A0E0B1E0EAE6F1E002C0EE
S113008005900D92AA30B107D9F70E944B000C9449
S1130090B3000C940000389A399A3A9A3B9A3C9AE5
S11300A0409A419A429A439A449A5098589AA0E0A6
S11300B0B0E060E070E041E050E000E010E0C0E05B
S11300C0D1E0FB01EE0FFF1FE050FF4F2FEF84E361
S11300D09CE0215080409040E1F700C0000028B12E
S11300E0CA01008002C0880F991F0A94E2F7822B8C
S11300F088B94899EBCF6430710561F428B1CA011D
S1130100088402C0880F991F0A94E2F7822B88B9E9
S1130110DA0115C06115710559F428B1CA010880C6
S113012002C0880F991F0A94E2F7822B88B902C093
S1130130109729F46F5F7F4FA02FB12F02C0615039
S1130140710998B1FB01EE0FFF1FE050FF4F9A01B8
S1130150008002C0220F331F0A94E2F7822F809599
S10D0160892388B9AECFF894FFCFCD
S10D016A000001000200030004007D
S9030000FC
