S014000046696E616C50726F6A6563742E737265634F
S11300000C9434000C9451000C9451000C94510045
S11300100C9451000C9451000C9451000C94510018
S11300200C9451000C9451000C9451000C94510008
S11300300C9451000C9419040C9451000C9451002C
S11300400C9451000C9451000C9486040C94B40448
S11300500C9451000C9451000C9451000C945100D8
S11300600C9451000C94510011241FBECFEFD8E022
S1130070DEBFCDBF11E0A0E0B1E0EAE3FAE002C0E8
S113008005900D92A239B107D9F721E0A2E9B1E0B8
S113009001C01D92A63EB207E1F70E94D4030C945E
S11300A01B050C940000FC01408121E030E002C0FB
S11300B0220F331F6A95E2F7242B20830895FC0155
S11300C0808121E030E002C0220F331F6A95E2F7FD
S11300D0922F90958923808380818181282B21838D
S11300E00895FC01908121E030E002C0220F331F0B
S11300F06A95E2F72095292320830895FC01408125
S113010021E030E002C0220F331F6A95E2F7242B6E
S113011020830895FC01808190E002C09595879525
S11301206A95E2F7F1E08F278170089561307105D7
S113013011F5109295011092940180910001909113
S11301400101019739F483E090E0909301018093D9
S1130150000104C0109201011092000162E088E0E5
S11301600E94100388E091E00E9422031092930100
S11301701092920188C0209194013091950124300D
S11301803105D9F143E050E050930101409300015F
S11301902115310531F441E050E05093A001409322
S11301A09F018A30910508F06EC0409192015091F0
S11301B09301BA01660F771F440F551F440F551F53
S11301C0440F551F460F571F840F951F909393019B
S11301D08093920162E088E0820F0E9410038DE018
S11301E091E00E94220380919401909195010196DF
S11301F0909395018093940146C0109295011092BA
S113020094011092A00110929F0162E088E00E9484
S1130210100388E091E00E94220380919201909162
S1130220930120919D0130919E01823D44E0940709
S113023029F0009761F040E050E004C021E030E094
S113024041E050E083366FE0960729F40CC021E0CA
S113025030E041E050E08E3C974049F421E030E04A
S113026041E050E004C021E030E041E050E0509330
S113027001014093000130939E0120939D0110924F
S113028093011092920180910001909101010895CF
S1130290CF92DF92EF92FF920F931F93CF93DF934E
S11302A0EC018B016A01790180919F019091A00179
S11302B0009729F001969093A00180939F0180916B
S11302C09D0190919E01009729F0019690939E01C3
S11302D080939D0161E086E290E00E948A00811192
S11302E038C062E086E290E00E948A00811131C049
S11302F063E086E290E00E948A0081112AC064E0F3
S113030086E290E00E948A00811123C0E0919C0162
S1130310F0E0E15FFE4F60818AE290E00E947100AC
S113032080919C01823019F410929C0103C08F5F6C
S113033080939C01E0919C01F0E0E15FFE4F6081BD
S11303408AE290E00E947E0010929B0110929A0132
S1130350D1C081E090E090939B0180939A018091B9
S11303609C01811145C0C130D10581F4012B09F0F4
S1130370C1C0CD2809F0BEC0EF2809F0BBC08AE097
S113038090E09093990180939801B4C0CD2B09F02B
S1130390B1C00130110569F4CD2809F0ABC0EF28D4
S11303A009F0A8C087E090E09093990180939801A8
S11303B0A1C0012B09F09EC081E0C816D10451F4FC
S11303C0EF2809F097C084E090E09093990180931E
S11303D0980190C0CD2809F08DC0EA94EF2809F067
S11303E089C081E090E0909399018093980182C044
S11303F0813009F043C0C130D10571F4012B09F0FB
S113040079C0CD2809F076C0EF2809F073C01092A6
S11304109901109298016EC0CD2B09F06BC0013088
S1130420110569F4CD2809F065C0EF2809F062C010
S113043088E090E090939901809398015BC0012B30
S113044009F058C081E0C816D10451F4EF2809F02E
S113045051C085E090E090939901809398014AC03F
S1130460CD2809F047C0EA94EF2809F043C082E0A0
S113047090E090939901809398013CC08230D1F52B
S1130480C130D10569F4012BA9F5CD2899F5EF28E0
S113049089F58BE090E090939901809398012AC0AC
S11304A0CD2B41F50130110559F4CD2819F5EF286C
S11304B009F589E090E090939901809398011AC01E
S11304C0012BC1F481E0C816D10449F4EF2891F45A
S11304D086E090E090939901809398010BC0CD2819
S11304E049F4EA94EF2831F483E090E09093990181
S11304F08093980180919D0190919E018B35910587
S11305008CF061E070E080919801909199010E94D3
S11305109600909303018093020110929E01109221
S11305209D0130C080919F019091A0018837910571
S11305308CF061E070E080919801909199010E94A3
S1130540960090930301809302011092A0011092EF
S11305509F0118C08091960190919701892B91F485
S113056080919A0190919B01019761F460E070E0A1
S113057080919801909199010E94960090930301B3
S11305808093020180919A0190919B01909397012D
S1130590809396018091020190910301DF91CF91A4
S11305A01F910F91FF90EF90DF90CF900895299ABB
S11305B0000029980895CF93C82F662311F0289A34
S11305C001C02898549A559A569A579A5F985E98FB
S11305D05D985C98CC230CF45F9AC6FD5E9AC5FDC9
S11305E05D9AC4FD5C9A0E94D7025F985E985D98FC
S11305F05C98C3FD5F9AC2FD5E9AC1FD5D9AC0FD21
S11306005C9A0E94D7025C9A5D9A5E9A5F9A8AEF1E
S11306108A95F1F7CF91089560E00E94DB02089576
S1130620611104C080580E940C03089580540E94F4
S11306300C03089581E00E940C03089561E00E9478
S1130640DB020895CF93DF93EC012196FC018081B6
S1130650882329F00E941E0389918111FBCFDF9129
S1130660CF910895CF93C82F209A559A219A549ADE
S1130670559A569A579A8FE99FE00197F1F700C06F
S113068000005D9A5C9A0E94D70281EE94E0019783
S1130690F1F700C000000E94D70295E19A95F1F7A6
S11306A000000E94D70285E18A95F1F700005C986A
S11306B00E94D70295E19A95F1F7000088E20E9422
S11306C00C0388E00E940C030E941A0386E00E9437
S11306D00C038C2F0E940C03CF91089560E08AE2F2
S11306E090E00E94530061E08AE290E00E9453008F
S11306F062E08AE290E00E94530060E08BE290E0C6
S11307000E947E0061E08BE290E00E947E0062E045
S11307108BE290E00E947E0061E087E290E00E941C
S11307205F0062E087E290E00E945F0063E087E29E
S113073090E00E945F0064E087E290E00E945F0026
S1130740EFE6F0E0808181608083E1E8F0E0808181
S11307508A7F80838081826080838CE00E94320360
S113076064E084E290E00E94530064E085E290E05B
S11307700E94710063E084E290E00E94530063E011
S113078085E290E00E94710060E087E290E00E94C0
S1130790530060E088E290E00E94710087E690E0F8
S11307A00E94DE04789408950E946E0360E081E064
S11307B00E94100382E191E00E94220362E088E03B
S11307C00E94100388E091E00E94220382E291E0FB
S11307D00E940C05809106019091070181309105DA
S11307E059F464E085E290E00E947E0060E088E2D3
S11307F090E00E947100EECF892B59F463E085E20A
S113080090E00E947E0060E088E290E00E947E001A
S1130810E1CF63E085E290E00E94710064E085E24C
S113082090E00E94710060E088E290E00E947E0007
S1130830D1CF1F920F920FB60F9211241F932F93B3
S11308403F934F935F936F937F938F939F93AF9354
S1130850BF93CF93DF93EF93FF9364E086E290E03E
S11308600E948A00182F63E086E290E00E948A00CA
S1130870D82F62E086E290E00E948A00C82F61E0EF
S113088086E290E00E948A00212F30E04D2F50E054
S11308906C2F70E090E00E944801909307018093D0
S11308A0060120910401309105018217930791F00C
S11308B0009729F489E491E00E940C050BC001978C
S11308C029F48EE591E00E940C0504C082E791E0D2
S11308D00E940C05809106019091070190930501F7
S11308E080930401FF91EF91DF91CF91BF91AF917C
S11308F09F918F917F916F915F914F913F912F9134
S11309001F910F900FBE0F901F9018951F920F927A
S11309100FB60F9211242F938F939F93EF93FF930E
S11309208091C0002091C6008C71E091A301EF5F1B
S1130930EF719091A201E91739F0E093A301F0E07F
S1130940EA55FE4F208301C082E09091A101892BDA
S11309508093A101FF91EF919F918F912F910F901F
S11309600FBE0F901F9018951F920F920FB60F9203
S113097011248F939F93EF93FF939091A5018091FE
S1130980A401981769F0E091A401EF5FEF71E0937F
S1130990A401F0E0EA53FE4F80818093C60005C0B5
S11309A0E1ECF0E080818F7D8083FF91EF919F9156
S11309B08F910F900FBE0F901F9018951092A50164
S11309C01092A4011092A3011092A20199231CF485
S11309D022E02093C00090789093C5008093C400D7
S11309E088E98093C10086E08093C2000895209135
S11309F0A5012F5F2F719091A4012917E1F3E22F34
S1130A00F0E0EA53FE4F80832093A501E1ECF0E08F
S1130A108081806280830895CF93DF93EC01888185
S1130A20882331F021960E94F70489918111FBCF2C
S10D0A30DF91CF910895F894FFCFF1
S1130A3A03000300030003002D2D2D2D002A0000BE
S1130A4A0102456E7465722070617373776F726404
S1130A5A3A0057656C636F6D652E20507265737327
S1130A6A202A20746F207665726966792074686515
S1130A7A20636F64652E0A0A0054686520646F6FE8
S1130A8A7220697320636C6F73652E0A0A005468B6
S1130A9A6520646F6F72206973206F70656E2E0A09
S1130AAA0A0054686520636F64652069732062656F
S1130ABA696E6720696E74726F64756365642E0A61
S1050ACA0A001C
S9030000FC
