S01400004B6E696768742052696465722E7372656395
S11300000C9434000C943E000C943E000C943E007E
S11300100C943E000C943E000C943E000C943E0064
S11300200C943E000C943E000C943E000C943E0054
S11300300C943E000C94C1000C943E000C943E00C1
S11300400C943E000C943E000C943E000C943E0034
S11300500C943E000C943E000C943E000C943E0024
S11300600C943E000C943E0011241FBECFEFD8E048
S1130070DEBFCDBF0E9465000C94ED000C9400001F
S1130080FC01408121E030E002C0220F331F6A9559
S1130090E2F7242B20830895FC01908121E030E0D5
S11300A002C0220F331F6A95E2F72095292320838B
S11300B00895FC01408121E030E002C0220F331F8B
S11300C06A95E2F7242B2083089560E087E290E0AC
S11300D00E94400060E087E290E00E944C0061E0F2
S11300E087E290E00E94400061E087E290E00E9495
S11300F04C0062E087E290E00E94400062E087E208
S113010090E00E944C0063E087E290E00E9440008F
S113011063E087E290E00E944C0064E087E290E0B4
S11301200E94400064E087E290E00E944C00EEE60A
S1130130F0E0808181608083E1E8F0E080818B7F62
S11301408083808183608083EFE6F0E0808181603A
S11301508083E0E7F0E08081816080837894E1E847
S1130160F0E0489907C080818B7F80838081836021
S11301708083F7CF80818C7F8083808184608083BB
S1130180F0CF1F920F920FB60F9211242F933F932B
S11301904F935F936F937F938F939F93AF93BF938B
S11301A0EF93FF9364E087E290E00E94590061E0DE
S11301B087E290E00E944C00FF91EF91BF91AF91D4
S11301C09F918F917F916F915F914F913F912F916B
S11101D00F900FBE0F901F901895F894FFCF5C
S9030000FC
